:100000004EC0000080C000007EC000000C948E082E
:100010000C948B080C94880876C0000074C0000013
:1000200072C0000070C000006EC000006CC0000014
:100030006AC0000068C0000066C000000C94570849
:1000400062C0000060C000005EC000005CC0000034
:100050005AC0000058C0000056C0000054C0000044
:1000600052C0000050C000004EC000004CC0000054
:100070004AC0000048C0000046C0000005A84CCDA2
:10008000B2D44EB93836A9020C50B9918688083CD2
:10009000A6AAAA2ABE000000803F080E5D0E112409
:1000A0001FBECFEFCDBFDFE3DEBF80914000809366
:1000B0004000811105C098ED21E094BF20934100DC
:1000C0008CBB18E3A0E0B8E3E9E8F9E202C00590D0
:1000D0000D92A031B107D9F729E3A0E1B8E301C03F
:1000E0001D92A531B207E1F710E0CEE4D0E004C0E4
:1000F0002197FE010E945612CD34D107C9F70E9404
:10010000D8080C9456147CCFE091FC38F091FD385F
:100110008E179F0798F530910339332361F0639F61
:10012000B0011124672F349FA0011124452F329F65
:1001300090011124232F30910939E0910439F09175
:1001400005395091063935131AC0DC01AA0FBB1FBF
:100150008A0F9B1F8E0F9F1FE0910639E80FF92F22
:10016000F11D6083E0910739E80FF92FF11D4083FD
:1001700030910839830F911DFC0120830895880F69
:10018000991F880F991F8E0F9F1FFC01E30FF11D10
:100190001082E2CF282F30E0F901E75CF64590812C
:1001A0009F3F51F1255B3645D901EC91F0E0DF012D
:1001B000AA0FBB1FA050B84C2D913C9121153105C1
:1001C000D9F0492F50E0440F551F240F351FD90196
:1001D0006D937C934FB7F8949F0155E0220F331F26
:1001E0005A95E1F7E0E1E90FE20FF0E0FC5F808172
:1001F000887F836080834FBF08959FB7F89488E01D
:100200008093840A80918E0A81FFFCCF80918D0AB1
:10021000E091A20AF091A30A2091743830917538C8
:1002200040917638509177389FBF80FF07C0E73004
:10023000F10520F42F5F3F4F4F4F5F4FAEEFB1E01E
:100240000E943C106E0F7F1F811D911D660F771F4E
:10025000881F991F08950F931F93CF93DF93CDB7F6
:10026000DEB72797CDBFDEBF8091FE389091FF3873
:1002700089839A838091043990910539892B09F4F7
:1002800093C080910239823108F08EC0B6DF0091B0
:100290000A3910910B3920910C3930910D39AB018D
:1002A000BC01401B510B620B730B80910039909184
:1002B0000139B0E0A0E0481759076A077B0730F31F
:1002C000F894A0910439B0910539FD0131968C91D3
:1002D0008F831B82A0910E39B0910F399C91809130
:1002E0001039982B9E839C91809589238D838D81D5
:1002F0008C838F8187FF02C08E818C835E816D81AC
:100300004F813C812B8189819A815C93262F3C937C
:1003100000C046FD252F6C9300C05C93362F2C93B4
:1003200000C045FD352F6C9300C05C93262F3C9395
:1003300000C044FD252F6C9300C05C93362F2C9396
:1003400000C043FD352F6C9300C05C93262F3C9377
:1003500000C042FD252F6C9300C05C93362F2C9378
:1003600000C041FD352F6C9300C05C93262F3C9359
:1003700000C040FD252F6C9301975C93362F2C9382
:10038000419147FD352F6C9301F64F833C832B83BE
:1003900089839A83789431DF60930A3970930B399B
:1003A00080930C3990930D392796CDBFDEBFDF9136
:1003B000CF911F910F910895CF92DF92EF92FF920C
:1003C000CF93DF936B017C0118DFEB01C114D104E3
:1003D000E104F10441F412C081E0C81AD108E10837
:1003E000F108C851DC4F09DF6C1B7D0B683E734080
:1003F00068F3C114D104E104F10471F7DF91CF91E6
:10040000FF90EF90DF90CF9008952FB7F894609110
:1004100078387091793880917A3890917B382FBFF5
:100420000895F3DF60937038709371388093723859
:10043000909373388091703890917138A091723890
:10044000B091733840916C3850916D3860916E382E
:1004500070916F38841B950BA60BB70B8B3F9105E2
:10046000A105B10568F08091F9389091FA380196AC
:100470006BE170E00E9443128093F9389093FA3850
:100480008091703890917138A0917238B091733822
:1004900080936C3890936D38A0936E38B0936F381A
:1004A0001092EE380895B1DF609370387093713810
:1004B000809372389093733880917038909171382E
:1004C000A0917238B091733840916C3850916D386A
:1004D00060916E3870916F38841B950BA60BB70B2B
:1004E0008B3F9105A105B10568F08091F938909195
:1004F000FA384A966BE170E00E9443128093F93813
:100500009093FA388091703890917138A091723838
:10051000B091733880936C3890936D38A0936E3897
:10052000B0936F381092EE380895282F2095253516
:1005300098F4822F880F880F622F681B9FEF960F09
:10054000692F70E090E080E0CB0177276627322F9B
:10055000330F230F622B08952A3A88F42555622F12
:10056000660F620F70E090E080E0982F872F762F63
:100570006627322F330F330F231B2150EBCF2A5A1C
:10058000822F880F880F322F381B3150622F660F51
:10059000620F70E090E080E0CB0177276627732B35
:1005A00008954F925F926F927F928F929F92AF9237
:1005B000BF92CF92DF92EF92FF920F931F93CF9350
:1005C000DF93EC015B0169017A01088110E0FB0116
:1005D000608170E0601B710B072E000C880B990B7B
:1005E0000E940D0FA70196010E946C0F2B013C0188
:1005F000B801110F880B990B0E940D0F9B01AC01E4
:10060000C301B2010E94AF100E948011062F8980A1
:10061000912CF501618170E068197909072E000CB1
:10062000880B990B0E940D0FA70196010E946C0F79
:100630002B013C01B401990C880B990B0E940D0F02
:100640009B01AC01C301B2010E94AF100E94801156
:10065000162FCA81D0E0F501828190E08C1B9D0BA2
:10066000BC01990F880B990B0E940D0FA7019601F1
:100670000E946C0F6B017C01BE01DD0F880B990B92
:100680000E940D0F9B01AC01C701B6010E94AF1083
:100690000E948011862FB801DF91CF911F910F9199
:1006A000FF90EF90DF90CF90BF90AF909F908F9092
:1006B0007F906F905F904F900895CF93DF9382313A
:1006C00008F043C090E0EC01C35AD64528812F3F83
:1006D00009F43BC0AC01455B5645DA01EC91B0E250
:1006E000EB9FF0011124FC5F26833081232391F4DA
:1006F0009C01275C3645D9012C91309749F128306F
:1007000038F57096E20FF11D3FB7F8942081277FEE
:1007100020833FBF895D9645FC0190819923A9F014
:1007200088819034E9F09038C1F0903171F4DA01A9
:100730009C91913081F4853010F0880F82959091D2
:10074000010A809589238093010ADF91CF91089552
:10075000F0E0E0E0D9CF880FF2CF1092A006F5CFFD
:1007600020E4823009F420E89091920A922369F300
:100770006FB7F8949091800A9E7F9093800A409181
:10078000920A30E02095309550E02423352398EDEF
:1007900094BF2093920A90918E0A90FFFCCF909183
:1007A000800A91609093800A813039F480915004DE
:1007B0008F77809350046FBFC8CF809151048F779B
:1007C00080935104F8CF8231E0F490E0FC01E35AC9
:1007D000F64520812F3FA9F0FC01E55BF645E0815D
:1007E00030E2E39FF0011124FC5F662359F021837E
:1007F000875C9645DC018C91E80FF11D8089877F2D
:10080000808B08952283F4CF8091480480FF05C037
:100810006DEC7CEC8CE49FE3089560E070E080E890
:100820009FE308954F925F926F927F928F929F9273
:10083000AF92BF92CF92DF92EF92FF92CF93C62FEB
:10084000772EF82EE1DF4B015C016F2D70E090E018
:1008500080E00E940D0FA50194010E946C0F6B01B6
:100860007C01672D70E090E080E00E940D0FA501F3
:1008700094010E946C0F2B013C016C2F70E090E002
:1008800080E00E940D0FA50194010E946C0F4B01A6
:100890005C01C701B6010E948011C62ED12CF12C3B
:1008A000E12C7601DD24CC24C301B2010E94801129
:1008B000D62AC501B4010E9480119601262BC701DA
:1008C000B901CF91FF90EF90DF90CF90BF90AF90A4
:1008D0009F908F907F906F905F904F9008954F9270
:1008E0005F926F927F928F929F92AF92BF92CF92C0
:1008F000DF92EF92FF920F931F93CF93DF936B01E1
:100900007C01D0E0C0E0C701B6018CDF2091FC384B
:100910003091FD38C217D307E8F52C0166247724FF
:10092000142D872E982EA92EBB24F82DE62F40914A
:100930000339442361F0449E20011124152D489D64
:1009400040011124F92D469F90011124E32F0091BD
:100950000939209104393091053950910639051330
:1009600035C0CE01880F991F8C0F9D1F280F391F8E
:10097000A0910639A20FB32FB11D1C93A091073986
:10098000A20FB32FB11DFC9380910839280F311DA0
:10099000D901EC9360DC61E070E080E090E00CDD78
:1009A0002196CE30D10509F0AECFDF91CF911F91C6
:1009B0000F91FF90EF90DF90CF90BF90AF909F90FE
:1009C0008F907F906F905F904F900895DE01AA0FF7
:1009D000BB1FAA0FBB1F2A0F3B1F692F7727882732
:1009E0009927442349F050E0469FD001479FB00D1E
:1009F000569FB00D11246B2FD901A00FB11D6C9320
:100A0000B7CFFC0124813581232B39F421E0FB0190
:100A10008081882349F020E007C0808191810E9475
:100A2000461421E0892BB9F7822F0895EF92FF92A7
:100A30000F931F93CF93DF93EC017B0118821982F0
:100A40001A821B821C821D82FB0101900020E9F7A3
:100A500031978F01061B170BB8016F5F7F4F90E036
:100A600080E00E9487130097B9F0888399830A83F6
:100A70001B832C813D81232B11F4FC0110820C83FC
:100A80001D83B70188819981DF91CF911F910F91CB
:100A9000FF90EF900C944F1488819981009711F08A
:100AA0000E94FE12188219821C821D821A821B82E9
:100AB000DF91CF911F910F91FF90EF9008952F92AA
:100AC0003F924F925F926F927F928F929F92AF92DE
:100AD000BF92CF92DF92EF92FF920F931F93CF932B
:100AE000DF93CDB7DEB76597CDBFDEBF8D836B8754
:100AF000142F8BDC2B013C0187DE6B017C0186EB24
:100B000098E389839A83AEE7B8E3AB83BC83312C47
:100B1000212C812F90E0B0E0A0E08F839887A987F7
:100B2000BA879B85892F90E0B0E0A0E08B879C87F7
:100B3000AD87BE879D81892F90E0B0E0A0E08F87D0
:100B4000988BA98BBA8BC10101968D839E8380FF00
:100B50006BC028EC30E0D101B595A7950E945C12DE
:100B6000640D751D861D971D2CE231E040E050E0BC
:100B70000E947D10663971058105910548F56F81E8
:100B8000788589859A850E940D0FA70196010E949C
:100B90006C0F0E9480116D8B6B857C858D859E8589
:100BA0000E940D0FA70196010E946C0F0E948011F8
:100BB0006B8B6F85788989899A890E940D0FA701AF
:100BC00096010E946C0F0E9480112D894B8903C0F1
:100BD00020E040E060E0C10197DAA981BA81149673
:100BE000A983BA83EB81FC813496EB83FC832D804F
:100BF0003E80FEE02F16310409F0A5CF6596CDBFEB
:100C0000DEBFDF91CF911F910F91FF90EF90DF90AA
:100C1000CF90BF90AF909F908F907F906F905F909C
:100C20004F903F902F9017CBC301B2010E940B0F42
:100C3000A981BA812D913D914D915C910E94131132
:100C40002BED3FE049EC50E40E946C0FEB81FC81FE
:100C500020813181428153810E94AF100E94AC11EA
:100C60002DEC3CEC4CE45EE30E946C0F2DEC3CEC74
:100C70004CE45FE30E94AF104B015C016F8178850B
:100C800089859A850E940D0FA50194010E946C0F21
:100C9000A70196010E946C0F0E947B118B016F3F90
:100CA000710519F014F00FEF10E017FD00E06B85EF
:100CB0007C858D859E850E940D0FA50194010E9463
:100CC0006C0FA70196010E946C0F0E947B116B8B29
:100CD0007C8B6F3F710529F024F0AFEFB0E0AB8B58
:100CE000BC8BEB89FC89F7FF02C01B8A1C8A6F85CD
:100CF000788989899A890E940D0FA50194010E9423
:100D00006C0FA70196010E946C0F0E947B116F3F30
:100D1000710519F014F06FEF70E077FD60E0202F9F
:100D200055CF2F923F924F925F926F927F928F9208
:100D30009F92AF92BF92CF92DF92EF92FF920F936A
:100D40001F93CF93DF93CDB7DEB7A497CDBFDEBFA0
:100D500089839A836FE679EA54DE81113CC166E7A4
:100D600079EA89819A814DDE811140C16DE779EA86
:100D700089819A8146DE811142C162E879EA8981DE
:100D80009A813FDE882309F47CC1AA24AA94B12C5D
:100D900000E018E78EE68B8F98E79F8F35DD6B01BB
:100DA0007C0133DB0E940B0F2BED3FE049EC50E45C
:100DB0000E946C0F6F83788789879A87A6EBB8E3C8
:100DC000AD83BE83EEE7F8E3EB83FC8384E398E333
:100DD00089839A83312C212C8A2D90E0B0E0A0E009
:100DE0008B879C87AD87BE878B2D90E0B0E0A0E01D
:100DF0008F87988BA98BBA8B802F90E0B0E0A0E012
:100E00008B8B9C8BAD8BBE8B812F90E0B0E0A0E0F4
:100E10008F8B988FA98FBA8F9B8D892F90E0B0E030
:100E2000A0E08B8F9C8FAD8FBE8F9F8D892F90E020
:100E3000B0E0A0E08F8F98A3A9A3BAA3ED81FE81B3
:100E40002191319141915191ED83FE83AB81BC8120
:100E50008D909D90AD90BD90AB83BC836F81788564
:100E600089859A850E941311A50194010E94AF10F3
:100E70000E94AC112DEC3CEC4CEC5EE30E946C0F3C
:100E80002AE939E949E15FE30E94AF102B013C01F7
:100E900020E030E0A901E981FA81608171818281DD
:100EA0009381B5D7811107C0A981BA814D925D9216
:100EB0006D927C921397E981FA8181909190A19033
:100EC000B190E983FA83A5019401C301B2010E94A4
:100ED000AE102DEC3CEC4CE45EE3FED7A501940192
:100EE0000E94AF104B015C01E981FA813497808246
:100EF0009182A282B382FFEF2F1A3F0A310181E073
:100F0000681A710820FE85C06F89788D898D9A8D49
:100F100084D7A5019401E0D7A7019601DDD70E94EF
:100F20007B118B016F3F710519F014F00FEF10E08A
:100F300017FD00E06B8D7C8D8D8D9E8D6ED7A5018C
:100F40009401CAD7A7019601C7D70E947B116BA352
:100F50007CA36F3F710529F024F0EFEFF0E0EBA3E5
:100F6000FCA38BA19CA197FF02C01BA21CA26F8DAA
:100F700078A189A19AA151D7A5019401ADD7A70164
:100F80009601AAD70E947B116F3F710519F014F0EA
:100F90006FEF70E077FD60E0202F4BA1C301B4D864
:100FA000AEE02A16310409F049CFA496CDBFDEBFCA
:100FB000DF91CF911F910F91FF90EF90DF90CF9035
:100FC000BF90AF909F908F907F906F905F904F9069
:100FD0003F902F9040C92CE2A22EBB24BA940CE281
:100FE0001CE2ACE2AB8FBFEFBF8FD8CEA12C94E652
:100FF000B92E0FEF1AEAEAEAEB8F1F8ECFCEA12CA3
:101000008BE3B82E0FEF10E2F6E3FB8F8FEF8F8F9D
:10101000C5CE6B857C858D859E85FFD6A501940107
:101020005BD7A701960158D70E947B118B016F3FB8
:10103000710519F014F00FEF10E017FD00E06F8557
:10104000788989899A89E9D6A501940145D7A701AC
:10105000960142D70E947B116BA37CA36F3F710561
:1010600029F024F0EFEFF0E0EBA3FCA38BA19CA10F
:1010700097FF02C01BA21CA26B897C898D899E8967
:101080007ACFA496CDBFDEBFDF91CF911F910F9194
:10109000FF90EF90DF90CF90BF90AF909F908F9098
:1010A0007F906F905F904F903F902F9008958F9317
:1010B00081E080938D0A8FB78F93EF93FF93E4E7DE
:1010C000F8E39F9368948FEF0FC0E8948481958133
:1010D0008C5E9F4F84839583885E934010F08FEFE2
:1010E00003C0848395838EEF9081981B91939081A8
:1010F0009F4F919390819F4F919390819F4F919398
:1011000026F39F91FF91EF918F918FBF8F9118954B
:101110000F9304E006C00F9302E003C00F9300E0BA
:1011200000C00F920FB60F921F921124FF921F93CF
:101130002F933F934F935F936F937F938F939F93DF
:10114000AF93BF93CF93DF93EF93FF93A0E0B8E308
:10115000A00FB11DCD91DC91000F0D5FA02FB0E06D
:10116000FC90109761F01F2D169518F041F0229613
:10117000FBCFE991F9913097B9F30995F5CFA02FFD
:10118000B0E0FC92FF91EF91DF91CF91BF91AF91D1
:101190009F918F917F916F915F914F913F912F918F
:1011A0001F91FF901F900F900FBE0F900F911895F9
:1011B000CF93DF93CDB7DEB72897CDBFDEBF11E069
:1011C00088ED84BF10936100E0E0F6E082E5828361
:1011D0008AE0858380E28383108310920202109359
:1011E000030A8EEF8093260A8093270A8BE0809370
:1011F000000AE0E8FAE08DEF91E086A797A7118258
:1012000080E88283148781E18083789461E0809113
:101210000239D9DA8091023950DA1093FB381BD8A1
:101220008091000669EF72E8882369F084E080937A
:1012300006061093080680910B0680FFFCCF609194
:10124000100670911106072E000C880B990B611582
:1012500071058105910509F0D1D506EB18E3AEE7DC
:10126000EA2EA8E3FA2EBEEECB2EB8E3DB2E88EBF7
:10127000482E8BE0582E612C712C94E7892E92E039
:10128000992EA12CB12C6ED5A3019201D9D6605311
:10129000784F8F4F9F4FC1D5D8016D937D938D931C
:1012A0009D938D015FD5A5019401CAD6B6D520E0E6
:1012B00030E048EC52E4B7D7F70161937193819322
:1012C00091937F01C016D106F1F6809100148B3105
:1012D00008F072C090E08093F9389093FA388091CA
:1012E000F9389091FA388093F7389093F83860E0A5
:1012F0008AE069DA61E172E087E00E94CA0063E592
:1013000072E082E00E94CA0064E670E080E090E053
:1013100053D82091F9383091FA388091F73890916C
:10132000F83828173907F9F08091F9389091FA3890
:1013300020910014281779F0A0E0B4E1E0E0F0E19A
:101340000FB622812370E9F7F8948C938DE984BF5E
:1013500083E080830FBE8091F9389091FA388093B2
:10136000F7389093F8382090F9383090FA38BBE18C
:101370002B16310408F0C8CFF101EF53F64F0C944F
:101380005612E109CC0AD20AD70ADC0AE10AE60AB7
:10139000EB0AF00AF50AFA0A060B090B0C0B0F0B05
:1013A000420B7F0BF00BF50BF90BFC0B000C030C45
:1013B000070C0B0C0F0C130C1092F9381092FA3822
:1013C0008ECF23D84B015C011FDA6B017C0120FC1E
:1013D00071C024EF31E0D101B595A7950E945C1250
:1013E000680D791D8A1D9B1D28EB38E840E050E010
:1013F00084D611D52B013C0120E030EC4AE555E4C0
:1014000012D779D76A30710514F069E070E0CB012A
:1014100001968C01000F111F080F191F072E000CD9
:10142000880B990BFAD420E030EC4AE555E454D50A
:101430009B01AC01C301B20191D620E030EC4AE53A
:1014400055E4F1D69B01AC01B8016C537745C80156
:101450008F539745A6D8162F072F682F70E090E07E
:1014600080E0DBD4A701960137D54AD7762E602FCE
:1014700070E090E080E0D1D4A70196012DD540D74F
:10148000062F612F70E090E080E0C7D4A70196019D
:1014900023D536D7272D402FC1010E948400FFEFAE
:1014A0002F1A3F0A2EE02216310409F090CF0E9435
:1014B0002B012ACFD1011197B595A7952CE231E0E8
:1014C000FBD7680D791D8A1D9B1D28EC32E340E097
:1014D00050E013D66838E3E17E078105910590F569
:1014E0009AD42B013C012EE833EE4AE054E49BD61B
:1014F00002D76930710514F068E070E0CB01019605
:101500008C01000F111F080F191F072E000C880BEC
:10151000990B83D42EE833EE4AE054E4DDD49B01EA
:10152000AC01C301B2011AD62EE833EE4AE054E40E
:101530007AD69B01AC01B801675F7645C8018A5F26
:10154000964588CF685873418109910964D425E58F
:1015500035E545E053E467D6CED66E3171057CF4AF
:10156000CB0166E070E08FD7FC01EE0FFF1FE80FA4
:10157000F91FE950F7456081718182816CCFCB0101
:101580004E9766E070E07FD7FC01EE0FFF1FE80F7B
:10159000F91FEB51F745EFCF60E070E08FEF90E07F
:1015A0009ED9B2CE60E07FEF80E090E0F9CF6FEFA0
:1015B00070E080E090E0F4CF60E074E68BE990E0CA
:1015C000EFCF60E870E880E090E0EACF66E970E095
:1015D00089E690E0E5CF60E078E287ED90E0E0CF4B
:1015E00060E273E08CED90E0DBCF64E67AE584E6C0
:1015F00090E0D6CF6FE679EACE01019617DACE01F8
:1016000001968FDB89819A81F9D77ECE66E779EAE8
:10161000F3CF6DE779EAF0CF62E879EAEDCF81E0C8
:101620008093EE38F12CE12C10E000E0802F8E0D3D
:101630000E949502F7D89B01AC01832E942EA52E13
:10164000BB24BA0188279927482DC8010E9484002D
:101650000F5F1F4F0E30110549F78091EE38882338
:1016600009F452CE0E942B0164E170E080E090E02A
:101670000E94DC018FEFE81AF80AE114A1E0FA06F3
:1016800099F642CE81E08093EE3810E000E0BEE0B3
:10169000AB2EB12CD12CC12CF12CE12CC601B50103
:1016A000DED6862F800F0E949502BCD89B01AC012C
:1016B000432E542E652E7724BA0188279927442D6E
:1016C000C7010E948400BFEFEB1AFB0AD394FEE02F
:1016D000EF16F10419F78091EE38882309F414CE3F
:1016E0000E942B0164E170E080E090E00E94DC0148
:1016F0000F5F1F4F011525E0120761F605CE0E940E
:1017000005020091F3381091F4382091F5383091AA
:10171000F6386B017C01C01AD10AE20AF30A97017C
:101720008601043611052105310508F4EDCD6093DD
:10173000F3387093F4388093F5389093F63810E0CE
:1017400000E020E040E060E0C8010E9484000F5FFC
:101750001F4F0E301105A9F7B12C10E000E0EEE0AC
:10176000EE2EF12C8091F1389091F238800F911F7C
:10177000B70189D66C018091EF388B0D0E949502DC
:1017800051D89B01AC01432E542E652E7724BA010B
:1017900088279927442DC6010E9484000F5F1F4FA0
:1017A00073E1D72EBD0C27EFB212DCCF0E942B01C4
:1017B0008091F1389091F2380196B70164D6809308
:1017C000F1389093F2388091EF389091F038059687
:1017D00060E071E058D68093EF389093F03894CD64
:1017E00040E060E08FEF6BD98FCD40E06FEF80E09D
:1017F000FACF4FEF60E0FBCF40E064E68BE9F3CF38
:1018000040E860E8F4CF46E960E089E6ECCF40E0EC
:1018100068E287EDE8CF40E263E08CEDE4CF44E698
:101820006AE584E6E0CF0E9405023B018F8398873A
:101830000E9404046B017C01B3018F81988520E430
:1018400036E040E050E059D4E6D220E030E048EC09
:1018500054E4E9D44B015C0120E030E040E05FE378
:10186000D6D287FF60C1A5019401C501B40177D428
:101870004B015C0120E030E040E352E42DD3A701AE
:1018800096012AD33DD5162F20E030E04FE753E4F0
:10189000C501B40121D3A70196011ED331D5212F53
:1018A000412F90E080E00E948400B3018F819885F1
:1018B00020ED37E040E050E020D4ADD220E030E031
:1018C0004AEF54E4B0D44B015C0120E030E040E04A
:1018D0005FE39DD287FF39C1A5019401C501B40121
:1018E0003ED44B015C0120E030E040E352E4F4D20E
:1018F000A7019601F1D204D5162F20E030E04FE782
:1019000053E4C501B401E8D2A7019601E5D2F8D4A9
:10191000212F412F81E090E00E948400B3018F814C
:10192000988520E639E040E050E0E7D374D220E02B
:1019300030E046E155E477D44B015C0120E030E033
:1019400040E05FE364D287FF12C1A5019401C501A5
:10195000B40105D44B015C0120E030E040E352E4E7
:10196000BBD2A7019601B8D2CBD4162F20E030E02D
:101970004FE753E4C501B401AFD2A7019601ACD241
:10198000BFD4212F412F82E090E00E9484004301C8
:10199000AF80B88403E010E0C501B40120ED37E06A
:1019A00040E050E0AAD337D220E030E04AEF54E4E0
:1019B0003AD41B012C0120E030E040E05FE327D265
:1019C00087FFE7C0A2019101C201B101C8D320E0A5
:1019D00030E04AE253E480D2A70196017DD290D450
:1019E000462F262F60E0C8010E94840088EC880EF4
:1019F000911CA11CB11C0F5F1F4F0730110561F630
:101A00004301AF80B884C501B4012CED35E040E05E
:101A100050E073D3683E73408105910508F0CBC058
:101A200020E030E040EA51E4C701B60155D268D465
:101A3000462E20E030E04FE753E4C701B6014CD218
:101A40005FD4562E20E030E048E453E4C701B601ED
:101A500043D256D4242D452DC8010E948400B4E6FB
:101A60008B0E911CA11CB11C0F5F1F4F0B30110579
:101A700051F6B3018F81988528EB3BE040E050E0C0
:101A80003CD3683EE3E07E078105910508F097C0EE
:101A9000C2D120E030E04AE754E4C5D34B015C01F9
:101AA00020E030E04FE753E4C501B40115D2A701AF
:101AB000960112D225D4162F20E030E040EA50E4FF
:101AC000C501B40109D2A701960106D219D4062F87
:101AD00020E030E04DE453E4C501B401FDD1A7019D
:101AE0009601FAD10DD4462F202F612F8BE090E084
:101AF0000E94840020E040E0612F8CE090E00E9492
:101B0000840020E030E047E553E4C501B401E4D1AE
:101B1000A7019601E1D1F4D3262F462F8DE090E066
:101B20000E948400C4CC20E030E040E05FE3C501C7
:101B3000B40114D39B01AC0112D39B01AC0160E052
:101B400070E080E89FE30AD393CE20E030E040E0ED
:101B50005FE3C501B40102D39B01AC0100D39B013B
:101B6000AC0160E070E080E89FE3F8D2BACE20E0FC
:101B700030E040E05FE3C501B401F0D29B01AC016D
:101B8000EED29B01AC0160E070E080E89FE3E6D21A
:101B9000E1CE20E030E040E05FE3C201B101DED2FF
:101BA0009B01AC01DCD29B01AC0160E070E080E8FD
:101BB0009FE3D4D20CCF20E040E060E04DCF6C3DFD
:101BC000F5E07F0781059105E0F0812C912C54010F
:101BD000643C29E072078105910508F061CF6C5DD6
:101BE00075408109910917D120E030E04AE754E4BB
:101BF0001AD39B01AC0160E070E080E89FE3AED2B5
:101C00004DCF812C912C80E8A82E8FE3B82E48CFA1
:101C10001092FB3882E390E0809300399093013971
:101C20001092033910920A3910920B3910920C3924
:101C300010920D3981E08093093980930639109212
:101C4000073982E0809308398AE290E08093FE3879
:101C50009093FF3837D480930439909305390097D7
:101C600019F12AE2FC0111922A95E9F78EE090E041
:101C70008093FC389093FD388BE0809302398091FB
:101C8000FB38882339F061E08BE00E94E3038BE0AE
:101C90000E945D0384E494E080930E3990930F39A1
:101CA00082E08093103908951092FE381092FF3828
:101CB0001092FC381092FD38DFCF8091043990915A
:101CC0000539009709F09AD460E0809102390C94AC
:101CD000E3038F929F92AF92BF92CF92DF92EF92E7
:101CE000FF92CF93DF93EC01688179818A819B8198
:101CF000611571058105910521F464E279ED8BE5AB
:101D000097E02DE133EF41E050E09AD149015A01CB
:101D10009B01AC01A7EAB1E4AFD16B017C01ACEE51
:101D2000B4EFA5019401B4D1C60ED71EE81EF91E6A
:101D3000F7FE06C081E0C81AD108E10880E8F80A79
:101D4000C882D982EA82FB82C701B6019F77DF9100
:101D5000CF91FF90EF90DF90CF90BF90AF909F908A
:101D60008F9008958F929F92AF92BF92CF92DF9201
:101D7000EF92FF9260910638709107388091083891
:101D800090910938611571058105910521F464E28E
:101D900079ED8BE597E02DE133EF41E050E050D154
:101DA00049015A019B01AC01A7EAB1E465D16B017D
:101DB0007C01ACEEB4EFA50194016AD1C60ED71E2A
:101DC000E81EF91EF7FE06C081E0C81AD108E10836
:101DD00080E8F80AC0920638D0920738E0920838B6
:101DE000F0920938C701B6019F77FF90EF90DF901E
:101DF000CF90BF90AF909F908F90089560930638DA
:101E0000709307388093083890930938089540D02C
:101E100008F481E00895E89409C097FB3EF490959A
:101E20008095709561957F4F8F4F9F4F9923A9F0B3
:101E3000F92F96E9BB279395F69587957795679542
:101E4000B795F111F8CFFAF4BB0F11F460FF1BC086
:101E50006F5F7F4F8F4F9F4F16C0882311F096E919
:101E600011C0772321F09EE8872F762F05C06623C7
:101E700071F096E8862F70E060E02AF09A95660F80
:101E8000771F881FDAF7880F9695879597F9089539
:101E9000990F0008550FAA0BE0E8FEEF161617067B
:101EA000E807F907C0F012161306E407F50798F0E3
:101EB000621B730B840B950B39F40A2661F0232BFC
:101EC000242B252B21F408950A2609F4A140A69578
:101ED0008FEF811D811D08950BD078C069D028F047
:101EE0006ED018F0952309F05AC05FC01124A2C02B
:101EF0007ED0A0F3959FD1F3950F50E0551F629FC0
:101F0000F001729FBB27F00DB11D639FAA27F00D52
:101F1000B11DAA1F649F6627B00DA11D661F829F79
:101F20002227B00DA11D621F739FB00DA11D621F5E
:101F3000839FA00D611D221F749F3327A00D611D7B
:101F4000231F849F600D211D822F762F6A2F11245D
:101F50009F5750408AF0E1F088234AF0EE0FFF1FB0
:101F6000BB1F661F771F881F91505040A9F79E3FE7
:101F7000510570F014C05EC05F3FECF3983EDCF397
:101F8000869577956795B795F795E7959F5FC1F724
:101F9000FE2B880F911D9695879597F9089597F9CF
:101FA0009F6780E870E060E008959FEF80EC0895FF
:101FB00000240A9416161706180609060895002428
:101FC0000A9412161306140605060895092E0394A2
:101FD000000C11F4882352F0BB0F40F4BF2B11F416
:101FE00060FF04C06F5F7F4F8F4F9F4F089557FD75
:101FF0009058440F551F59F05F3F71F04795880F77
:1020000097FB991F61F09F3F79F08795089512160D
:1020100013061406551FF2CF4695F1DF08C01616B9
:1020200017061806991FF1CF86957105610508946A
:102030000895E894BB2766277727CB0197F9089581
:10204000052E97FB16F400940FD057FD05D055D000
:1020500007FC02D046F408C0509540953095219574
:102060003F4F4F4F5F4F08959095809570956195C4
:102070007F4F8F4F9F4F089562D0A59F900DB49FC3
:10208000900DA49F800D911D11240895B7FFF4CFEA
:10209000F3DF821B930B08952F923F924F925F9232
:1020A0006F927F928F929F92AF92BF92CF92DF9268
:1020B000EF92FF920F931F93CF93DF93CDB7DEB7CD
:1020C000CA1BDB0BCDBFDEBF09942A88398848883C
:1020D0005F846E847D848C849B84AA84B984C88444
:1020E000DF80EE80FD800C811B81AA81B981CE0F3B
:1020F000D11DCDBFDEBFED010895A1E21A2EAA1BAE
:10210000BB1BFD010DC0AA1FBB1FEE1FFF1FA217A7
:10211000B307E407F50720F0A21BB30BE40BF50BA4
:10212000661F771F881F991F1A9469F7609570952D
:10213000809590959B01AC01BD01CF010895A29FB0
:10214000B001B39FC001A39F700D811D1124911D8B
:10215000B29F700D811D1124911D08955058BB2709
:10216000AA270ED033CF24DF30F029DF20F031F45E
:102170009F3F11F41EF419CF0EF4E095E7FB0FCF4B
:10218000E92F35DF80F3BA176207730784079507D5
:1021900018F071F49EF54DCF0EF4E0950B2EBA2F8A
:1021A000A02D0B01B90190010C01CA01A00111245D
:1021B000FF27591B99F0593F50F4503E68F11A1609
:1021C000F040A22F232F342F4427585FF3CF46959A
:1021D00037952795A795F0405395C9F77EF41F16BC
:1021E000BA0B620B730B840BBAF09150A1F0FF0F86
:1021F000BB1F661F771F881FC2F70EC0BA0F621F72
:10220000731F841F48F4879577956795B795F79561
:102210009E3F08F0B3CF9395880F08F09927EE0FF3
:102220009795879508950CD0D1CEC9DE40F0C0DED9
:1022300030F021F45F3F19F0B2CE5111FBCEB5CE94
:10224000D6DE98F39923C9F35523B1F3951B550BAB
:10225000BB27AA2762177307840738F09F5F5F4F79
:10226000220F331F441FAA1FA9F333D00E2E3AF0BA
:10227000E0E830D091505040E695001CCAF729D0D4
:10228000FE2F27D0660F771F881FBB1F2617370723
:102290004807AB07B0E809F0BB0B802DBF01FF2753
:1022A00093585F4F2AF09E3F510568F078CEC2CE1A
:1022B0005F3FECF3983EDCF3869577956795B7958D
:1022C000F7959F5FC9F7880F911D9695879597F9A8
:1022D0000895E1E0660F771F881FBB1F6217730721
:1022E0008407BA0720F0621B730B840BBA0BEE1F36
:1022F00088F7E095089504D06894B1119BCE0895B5
:102300007EDE88F09F5790F0B92F9927B751A0F043
:10231000D1F0660F771F881F991F1AF0BA95C9F779
:1023200012C0B13081F085DEB1E0089582CE672F12
:10233000782F8827B85F39F0B93FCCF38695779529
:102340006795B395D9F73EF4909580957095619512
:102350007F4F8F4F9F4F08959F9305D00F9007FC9D
:10236000EE5F28C022CE4BDEE8F3E894E0E0BB2726
:102370009F57F0F02AED3FE049EC06C0EE0FBB0F8F
:10238000661F771F881F28F0B23A62077307840719
:1023900028F0B25A620B730B840BE3959A9572F78F
:1023A000803830F49A95BB0F661F771F881FD2F7CD
:1023B000904813C0EF93E0FF06C0A2EA2AED3FE089
:1023C00049EC5FEBDDDE02DE0F90039401FC9058D8
:1023D000ECE7F0E00EC09F3F31F0915020F487957C
:1023E00077956795B795880F911D9695879597F97D
:1023F00008959F938F937F936F93FF93EF939B0128
:10240000AC016ADDEF91FF9105D02F913F914F9183
:102410005F9162CDDF93CF931F930F93FF92EF9263
:10242000DF927B018C01689405C0DA2EEF0160DD3C
:10243000FE01E894A5912591359145915591AEF312
:10244000EF019EDEFE019701A801DA9479F7DF9093
:10245000EF90FF900F911F91CF91DF910895AA1BEC
:10246000BB1B51E107C0AA1FBB1FA617B70710F07F
:10247000A61BB70B881F991F5A95A9F780959095B1
:10248000BC01CD01089597FB072E16F4009406D0E9
:1024900077FD08D0E4DF07FC05D03EF490958195E8
:1024A0009F4F0895709561957F4F0895EE0FFF1F20
:1024B0000590F491E02D099442DEB7FF0895821B48
:1024C000930B08950F931F93CF93DF938230910561
:1024D00010F482E090E0E0911339F091143930E08B
:1024E00020E0B0E0A0E0309799F42115310509F41F
:1024F0004AC0281B390B24303105D8F58A819B81CD
:102500006115710589F1FB0182839383FE0111C07E
:10251000408151810281138148175907E0F0481723
:10252000590799F4109761F012960C93129713962D
:102530001C933296CF01DF91CF911F910F91089597
:102540000093133910931439F4CF2115310551F04C
:102550004217530738F0A901DB019A01BD01DF01E1
:10256000F801C1CFEF01F9CF80931339909314395B
:10257000CDCFFE01E20FF31F8193919322503109D9
:1025800028833983D7CF2091113930911239232BE9
:1025900041F420910C3830910D382093113930934B
:1025A000123920910A3830910B382115310541F448
:1025B0002DB73EB740910E3850910F38241B350B84
:1025C000E0911139F0911239E217F307A0F42E1BB4
:1025D0003F0B2817390778F0AC014E5F5F4F241787
:1025E000350748F04E0F5F1F409311395093123951
:1025F000819391939FCFF0E0E0E09CCFCF93DF9366
:102600000097E9F0FC01329712821382A0911339EE
:10261000B0911439ED0130E020E01097A1F4208151
:102620003181820F931F209111393091123928176F
:10263000390709F061C0E0931139F0931239DF9145
:10264000CF910895EA01CE17DF07E8F54A815B8153
:102650009E0141155105B1F7E901EA83FB834991D8
:102660005991C40FD51FEC17FD0761F4808191814A
:102670000296840F951FE901888399838281938153
:102680008A839B83F0E0E0E012968D919C911397F2
:102690000097B9F52D913C911197CD010296820FCB
:1026A000931F20911139309112392817390739F6C3
:1026B000309751F51092133910921439A0931139B3
:1026C000B0931239BCCFC283D38340815181840F30
:1026D000951FC817D90761F44E5F5F4F88819981B4
:1026E000480F591F408351838A819B818283938342
:1026F0002115310509F0B0CFE0931339F093143967
:102700009ECFFD01DC01C0CF12821382D7CFB0E093
:10271000A0E0ECE8F3E1C2CC8C01009741F4CB01DE
:10272000D1DE8C01C801CDB7DEB7E0E1D0CCFC0131
:10273000E60FF71F9C0122503109E217F30708F456
:1027400099C0D901CD91DC911197C617D70790F0A8
:10275000C530D10538F3CE0104978617970710F3DB
:10276000C61BD70B2297C193D1936D937C93CF0156
:1027700045DFD8CF5B01AC1ABD0A4C018C0E9D1E03
:10278000A0911339B0911439512C412CF12CE12C2A
:10279000109731F58091113990911239881599056A
:1027A00009F05CC04616570608F058C080910A38F8
:1027B00090910B38009741F48DB79EB740910E3839
:1027C00050910F38841B950BE817F90708F052C099
:1027D000E0931139F0931239F90160837183A2CF2C
:1027E0008D919C91119712966C90129713967C90F4
:1027F0001397A815B90559F56C0142E0C40ED11C18
:10280000CA14DB0420F1AC014A195B09DA01129603
:10281000159780F06282738240835183D9016D9352
:102820007C93E114F10471F0D7011296ED93FC93BF
:10283000139778CF22968C0F9D1FF9018083918387
:10284000F301EFCFE0931339F09314396BCF4816AF
:10285000590608F42C017D01D3019ACFCB0132DE59
:102860007C01009739F0AE01B80107D0C801C6DE7F
:10287000870158CF10E000E055CFFB01DC0102C01A
:1028800001900D9241505040D8F70895FB01DC01B2
:102890008D91019080190110D9F3990B0895FB01D6
:1028A000DC0101900D920020E1F7089510E0CEE4E4
:1028B000D0E003C0FE01FADD2196CF34D107D1F775
:0428C000F894FFCFBA
:1028C400FF000080800000FF000080800000FF55B2
:1028D40055550000FF00808000FF00808000FF004D
:1028E40000808000000000008080000000800080E4
:1028F400000000FF000000000000FF0000000000D6
:1029040000FF000000FF000080800000FF00008046
:10291400800000FF5555550000FF00808000FF0037
:102924008080001010800000000010101040400053
:10293400000000100004050607050403020100005E
:102944000102030102030000000000010101010172
:102954000102020202000000001020408020100842
:102964000402010102040802040801737072696E12
:10297400670073756D6D65720066616C6C007769D4
:052984006E7465720095
:10298900243818381038010000000000153980007B
:00000001FF
