:100000004EC0000080C000007EC000000C948F082D
:100010000C948C080C94890876C0000074C0000011
:1000200072C0000070C000006EC000006CC0000014
:100030006AC0000068C0000066C000000C94580848
:1000400062C0000060C000005EC000005CC0000034
:100050005AC0000058C0000056C0000054C0000044
:1000600052C0000050C000004EC000004CC0000054
:100070004AC0000048C0000046C0000005A84CCDA2
:10008000B2D44EB93836A9020C50B9918688083CD2
:10009000A6AAAA2ABE000000803F1F0C730C1124E0
:1000A0001FBECFEFCDBFDFE3DEBF80914000809366
:1000B0004000811105C098ED21E094BF20934100DC
:1000C0008CBB18E3A0E0B8E3E3EBF5E202C00590D7
:1000D0000D92A031B107D9F729E3A0E1B8E301C03F
:1000E0001D92A531B207E1F710E0CEE4D0E004C0E4
:1000F0002197FE010E946B10CD34D107C9F70E94F1
:10010000D9080C946B127CCFE091FC38F091FD384B
:100110008E179F0798F530910339332361F0639F61
:10012000B0011124672F349FA0011124452F329F65
:1001300090011124232F30910939E0910439F09175
:1001400005395091063935131AC0DC01AA0FBB1FBF
:100150008A0F9B1F8E0F9F1FE0910639E80FF92F22
:10016000F11D6083E0910739E80FF92FF11D4083FD
:1001700030910839830F911DFC0120830895880F69
:10018000991F880F991F8E0F9F1FFC01E30FF11D10
:100190001082E2CF282F30E0F901ED59FA45908125
:1001A0009F3F51F12B583A45D901EC91F0E0DF0126
:1001B000AA0FBB1FA050B84C2D913C9121153105C1
:1001C000D9F0492F50E0440F551F240F351FD90196
:1001D0006D937C934FB7F8949F0155E0220F331F26
:1001E0005A95E1F7E0E1E90FE20FF0E0FC5F808172
:1001F000887F836080834FBF08959FB7F89488E01D
:100200008093840A80918E0A81FFFCCF80918D0AB1
:10021000E091A20AF091A30A2091743830917538C8
:1002200040917638509177389FBF80FF07C0E73004
:10023000F10520F42F5F3F4F4F4F5F4FAEEFB1E01E
:100240000E94510E6E0F7F1F811D911D660F771F3B
:10025000881F991F08950F931F93CF93DF93CDB7F6
:10026000DEB72797CDBFDEBF8091FE389091FF3873
:1002700089839A838091043990910539892B09F4F7
:1002800093C080910239823108F08EC0B6DF0091B0
:100290000A3910910B3920910C3930910D39AB018D
:1002A000BC01401B510B620B730B80910039909184
:1002B0000139B0E0A0E0481759076A077B0730F31F
:1002C000F894A0910439B0910539FD0131968C91D3
:1002D0008F831B82A0910E39B0910F399C91809130
:1002E0001039982B9E839C91809589238D838D81D5
:1002F0008C838F8187FF02C08E818C835E816D81AC
:100300004F813C812B8189819A815C93262F3C937C
:1003100000C046FD252F6C9300C05C93362F2C93B4
:1003200000C045FD352F6C9300C05C93262F3C9395
:1003300000C044FD252F6C9300C05C93362F2C9396
:1003400000C043FD352F6C9300C05C93262F3C9377
:1003500000C042FD252F6C9300C05C93362F2C9378
:1003600000C041FD352F6C9300C05C93262F3C9359
:1003700000C040FD252F6C9301975C93362F2C9382
:10038000419147FD352F6C9301F64F833C832B83BE
:1003900089839A83789431DF60930A3970930B399B
:1003A00080930C3990930D392796CDBFDEBFDF9136
:1003B000CF911F910F910895CF92DF92EF92FF920C
:1003C000CF93DF936B017C0118DFEB01C114D104E3
:1003D000E104F10441F412C081E0C81AD108E10837
:1003E000F108C851DC4F09DF6C1B7D0B683E734080
:1003F00068F3C114D104E104F10471F7DF91CF91E6
:10040000FF90EF90DF90CF9008952FB7F894609110
:1004100078387091793880917A3890917B382FBFF5
:100420000895F3DF60937038709371388093723859
:10043000909373388091703890917138A091723890
:10044000B091733840916C3850916D3860916E382E
:1004500070916F38841B950BA60BB70B8B3F9105E2
:10046000A105B10568F08091F9389091FA380196AC
:100470006AE170E00E9458108093F9389093FA383E
:100480008091703890917138A0917238B091733822
:1004900080936C3890936D38A0936E38B0936F381A
:1004A0001092EE380895B1DF609370387093713810
:1004B000809372389093733880917038909171382E
:1004C000A0917238B091733840916C3850916D386A
:1004D00060916E3870916F38841B950BA60BB70B2B
:1004E0008B3F9105A105B10568F08091F938909195
:1004F000FA3849966AE170E00E9458108093F93802
:100500009093FA388091703890917138A091723838
:10051000B091733880936C3890936D38A0936E3897
:10052000B0936F381092EE380895282F2095253516
:1005300098F4822F880F880F622F681B9FEF960F09
:10054000692F70E090E080E0CB0177276627322F9B
:10055000330F230F622B08952A3A88F42555622F12
:10056000660F620F70E090E080E0982F872F762F63
:100570006627322F330F330F231B2150EBCF2A5A1C
:10058000822F880F880F322F381B3150622F660F51
:10059000620F70E090E080E0CB0177276627732B35
:1005A00008954F925F926F927F928F929F92AF9237
:1005B000BF92CF92DF92EF92FF920F931F93CF9350
:1005C000DF93EC015B0169017A01088110E0FB0116
:1005D000608170E0601B710B072E000C880B990B7B
:1005E0000E94220DA70196010E94810D2B013C0162
:1005F000B801110F880B990B0E94220D9B01AC01D1
:10060000C301B2010E94C40E0E94950F062F89807B
:10061000912CF501618170E068197909072E000CB1
:10062000880B990B0E94220DA70196010E94810D53
:100630002B013C01B401990C880B990B0E94220DEF
:100640009B01AC01C301B2010E94C40E0E94950F30
:10065000162FCA81D0E0F501828190E08C1B9D0BA2
:10066000BC01990F880B990B0E94220DA7019601DE
:100670000E94810D6B017C01BE01DD0F880B990B7F
:100680000E94220D9B01AC01C701B6010E94C40E5D
:100690000E94950F862FB801DF91CF911F910F9186
:1006A000FF90EF90DF90CF90BF90AF909F908F9092
:1006B0007F906F905F904F900895CF93DF9382313A
:1006C00008F043C090E0EC01C957DA4528812F3F7C
:1006D00009F43BC0AC014B585A45DA01EC91B0E249
:1006E000EB9FF0011124FC5F26833081232391F4DA
:1006F0009C012D593A45D9012C91309749F1283068
:1007000038F57096E20FF11D3FB7F8942081277FEE
:1007100020833FBF8F5A9A45FC0190819923A9F00D
:1007200088819034E9F09038C1F0903171F4DA01A9
:100730009C91913081F4853010F0880F82959091D2
:10074000010A809589238093010ADF91CF91089552
:10075000F0E0E0E0D9CF880FF2CF1092A006F5CFFD
:1007600020E4823009F420E89091920A922369F300
:100770006FB7F8949091800A9E7F9093800A409181
:10078000920A30E02095309550E02423352398EDEF
:1007900094BF2093920A90918E0A90FFFCCF909183
:1007A000800A91609093800A813039F480915004DE
:1007B0008F77809350046FBFC8CF809151048F779B
:1007C00080935104F8CF80914804817008954F922E
:1007D0005F926F927F928F929F92AF92BF92CF92D1
:1007E000DF92EF92FF92CF93C62F772EF82EEBDF9A
:1007F000812C912C20E8A22E2FE3B22E813041F4DF
:100800009DEC892E9CEC992E9CE4A92E9FE3B92E99
:100810006F2D70E090E080E00E94220DA501940110
:100820000E94810D6B017C01672D70E090E080E0FB
:100830000E94220DA50194010E94810D2B013C0113
:100840006C2F70E090E080E00E94220DA5019401E1
:100850000E94810D4B015C01C701B6010E94950FFA
:10086000C62ED12CF12CE12C7601DD24CC24C30141
:10087000B2010E94950FD62AC501B4010E94950FBE
:100880009601262BC701B901CF91FF90EF90DF9021
:10089000CF90BF90AF909F908F907F906F905F9020
:1008A0004F9008954F925F926F927F928F929F9296
:1008B000AF92BF92CF92DF92EF92FF920F931F936E
:1008C000CF93DF936B017C01D0E0C0E0C701B6019C
:1008D0007EDF2091FC383091FD38C217D307E8F550
:1008E0002C0166247724142D872E982EA92EBB2444
:1008F000F82DE62F40910339442361F0449E2001F6
:100900001124152D489D40011124F92D469F900179
:100910001124E32F009109392091043930910539D0
:1009200050910639051335C0CE01880F991F8C0FE1
:100930009D1F280F391FA0910639A20FB32FB11D9B
:100940001C93A0910739A20FB32FB11DFC93809186
:100950000839280F311DD901EC937DDC61E070E08E
:1009600080E090E029DD2196CE30D10509F0AECFB0
:10097000DF91CF911F910F91FF90EF90DF90CF907B
:10098000BF90AF909F908F907F906F905F904F90AF
:100990000895DE01AA0FBB1FAA0FBB1F2A0F3B1F22
:1009A000692F772788279927442349F050E0469FED
:1009B000D001479FB00D569FB00D11246B2FD90168
:1009C000A00FB11D6C93B7CF8231E0F490E0FC0131
:1009D000E957FA4520812F3FA9F0FC01EB58FA4571
:1009E000E08130E2E39FF0011124FC5F662359F0BF
:1009F00021838D599A45DC018C91E80FF11D808986
:100A0000877F808B08952283F4CFFC012481358178
:100A1000232B39F421E0FB018081882349F020E079
:100A200007C0808191810E945B1221E0892BB9F778
:100A3000822F0895EF92FF920F931F93CF93DF932E
:100A4000EC017B01188219821A821B821C821D8292
:100A5000FB0101900020E9F731978F01061B170B6E
:100A6000B8016F5F7F4F90E080E00E949C1100977B
:100A7000B9F0888399830A831B832C813D81232BC2
:100A800011F4FC0110820C831D83B70188819981C8
:100A9000DF91CF911F910F91FF90EF900C94641212
:100AA00088819981009711F00E9413111882198290
:100AB0001C821D821A821B82DF91CF911F910F91A0
:100AC000FF90EF9008952F923F924F925F926F9216
:100AD0007F928F929F92AF92BF92CF92DF92EF92CE
:100AE000FF920F931F93CF93DF93CDB7DEB7659738
:100AF000CDBFDEBF8D836B87142F87DC4B015C017C
:100B000062DE2DEC422E2CEC522E2CE4622E2FE3D2
:100B1000722E813031F0412C512C90E8692E9FE3E8
:100B2000792E86EB98E389839A83AEE7B8E3AB83AB
:100B3000BC83312C212C812F90E0B0E0A0E08F838A
:100B40009887A987BA879B85892F90E0B0E0A0E0BD
:100B50008B879C87AD87BE879D81892F90E0B0E011
:100B6000A0E08F87988BA98BBA8BC10101968D83EA
:100B70009E8380FF65C028EC30E0D101B595A79534
:100B80000E947110680D791D8A1D9B1D2CE231E0B9
:100B900040E050E00E94920E663971058105910592
:100BA00018F56F81788589859A854CD7A3019201C4
:100BB000A8D70E94950F6D8B6B857C858D859E8552
:100BC00041D7A30192019DD70E94950F6B8B6F8532
:100BD000788989899A8936D7A301920192D70E9490
:100BE000950F2D894B8903C020E040E060E0C101F2
:100BF0008BDAA981BA811496A983BA83EB81FC812F
:100C00003496EB83FC832D803E80FEE02F1631046A
:100C100009F0ABCF6596CDBFDEBFDF91CF911F91BD
:100C20000F91FF90EF90DF90CF90BF90AF909F908B
:100C30008F907F906F905F904F903F902F900BCB55
:100C4000C501B401FDD6A981BA812D913D914D9187
:100C50005C910E94280F2BED3FE049EC50E451D706
:100C6000EB81FC8120813181428153810E94C40E3D
:100C70000E94C10F2DEC3CEC4CE45EE342D72DEC1E
:100C80003CEC4CE45FE30E94C40E6B017C016F817D
:100C9000788589859A85D6D6A701960132D7A30192
:100CA00092012FD70E94900F8B016F3F710519F0B1
:100CB00014F00FEF10E017FD00E06B857C858D854B
:100CC0009E85C0D6A70196011CD7A301920119D712
:100CD0000E94900F6B8B7C8B6F3F710529F024F085
:100CE000AFEFB0E0AB8BBC8BEB89FC89F7FF02C0A8
:100CF0001B8A1C8A6F85788989899A89A3D6A7015E
:100D00009601FFD6A3019201FCD60E94900F6F3F7F
:100D1000710519F014F06FEF70E077FD60E0202F9F
:100D200061CF2F923F924F925F926F927F928F92FC
:100D30009F92AF92BF92CF92DF92EF92FF920F936A
:100D40001F93CF93DF93CDB7DEB7A497CDBFDEBFA0
:100D500089839A8369E975EA58DE81113FC160EAA7
:100D600075EA89819A8151DE811143C167EA75EA8A
:100D700089819A814ADE811145C16CEA75EA8981CF
:100D80009A8143DE882309F47DC1EE24EA94F12C94
:100D900000E018E78EE68B8F98E79F8F14DD9DECBF
:100DA000892E9CEC992E9CE4A92E9FE3B92E8130CC
:100DB00031F0812C912C80E8A82E8FE3B82E25DB12
:100DC0003FD62BED3FE049EC50E49BD66F8378870C
:100DD00089879A87A6EBB8E3AD83BE83EEE7F8E395
:100DE000EB83FC8384E398E389839A83312C212C61
:100DF0008E2D90E0B0E0A0E08B879C87AD87BE870A
:100E00008F2D90E0B0E0A0E08F87988BA98BBA8BF4
:100E1000802F90E0B0E0A0E08B8B9C8BAD8BBE8BE5
:100E2000812F90E0B0E0A0E08F8B988FA98FBA8FD0
:100E30009B8D892F90E0B0E0A0E08B8F9C8FAD8FD1
:100E4000BE8F9F8D892F90E0B0E0A0E08F8F98A398
:100E5000A9A3BAA3ED81FE812191319141915191D4
:100E6000ED83FE83AB81BC81CD90DD90ED90FD9054
:100E7000AB83BC836F81788589859A85E9D7A70183
:100E8000960182D70E94C10F2DEC3CEC4CEC5EE346
:100E900038D62AE939E949E15FE376D72B013C01ED
:100EA00020E030E0A901E981FA81608171818281CD
:100EB0009381C2D5811107C0A981BA814D925D92FB
:100EC0006D927C921397E981FA81C190D190E19063
:100ED000F190E983FA83A7019601C301B20153D7C8
:100EE0002DEC3CEC4CE45EE30CD6A70196014CD70C
:100EF0006B017C01E981FA813497C082D182E28260
:100F0000F382FFEF2F1A3F0A310181E0681A71085E
:100F100020FE82C06F89788D898D9A8D93D5A70127
:100F20009601EFD5A5019401ECD5FAD78B016F3F5F
:100F3000710519F014F00FEF10E017FD00E06B8D54
:100F40007C8D8D8D9E8D7ED5A7019601DAD5A5016C
:100F50009401D7D5E5D76BA37CA36F3F710529F02A
:100F600024F0EFEFF0E0EBA3FCA38BA19CA197FF93
:100F700002C01BA21CA26F8D78A189A19AA162D583
:100F8000A7019601BED5A5019401BBD5C9D76F3F76
:100F9000710519F014F06FEF70E077FD60E0202F1D
:100FA0004BA1C301B1D8AEE02A16310409F052CFEB
:100FB000A496CDBFDEBFDF91CF911F910F91FF901F
:100FC000EF90DF90CF90BF90AF909F908F907F90E9
:100FD0006F905F904F903F902F903DC94CE2E42E70
:100FE000FF24FA940CE21CE2ACE2AB8FBFEFBF8FA0
:100FF000D5CEE12C34E6F32E0FEF1AEAEAEAEB8FB6
:101000001F8ECCCEE12C2BE3F22E0FEF10E2F6E395
:10101000FB8F8FEF8F8FC2CE6B857C858D859E85F4
:1010200011D5A70196016DD5A50194016AD578D790
:101030008B016F3F710519F014F00FEF10E017FDF1
:1010400000E06F85788989899A89FCD4A701960187
:1010500058D5A501940155D563D76BA37CA36F3FE9
:10106000710529F024F0EFEFF0E0EBA3FCA38BA1D6
:101070009CA197FF02C01BA21CA26B897C898D8951
:101080009E897DCFA496CDBFDEBFDF91CF911F910A
:101090000F91FF90EF90DF90CF90BF90AF909F9017
:1010A0008F907F906F905F904F903F902F9008951A
:1010B0008F9381E080938D0A8FB78F93EF93FF9387
:1010C000E4E7F8E39F9368948FEF0FC0E89484817E
:1010D00095818C5E9F4F84839583885E934010F04A
:1010E0008FEF03C0848395838EEF9081981B91933B
:1010F00090819F4F919390819F4F919390819F4FAB
:10110000919326F39F91FF91EF918F918FBF8F91D4
:1011100018950F9304E006C00F9302E003C00F93ED
:1011200000E000C00F920FB60F921F921124FF92A1
:101130001F932F933F934F935F936F937F938F935F
:101140009F93AF93BF93CF93DF93EF93FF93A0E071
:10115000B8E3A00FB11DCD91DC91000F0D5FA02F62
:10116000B0E0FC90109761F01F2D169518F041F03B
:101170002296FBCFE991F9913097B9F30995F5CF14
:10118000A02FB0E0FC92FF91EF91DF91CF91BF9142
:10119000AF919F918F917F916F915F914F913F910F
:1011A0002F911F91FF901F900F900FBE0F900F91E6
:1011B0001895CF93DF93CDB7DEB72697CDBFDEBFAF
:1011C00011E088ED84BF10936100E0E0F6E082E575
:1011D00082838AE0858380E28383108310920202F7
:1011E0001093030A8EEF8093260A8093270A8BE0E0
:1011F0008093000AE0E8FAE08DEF91E086A797A7D8
:10120000118280E88283148781E18083789461E091
:1012100080910239D9DB809102394FDA1093FB3883
:101220001AD88091000669EF72E8882369F084E09B
:10123000809306061093080680910B0680FFFCCF72
:101240006091100670911106072E000C880B990B07
:10125000611571058105910509F0E5D306EB18E3E9
:10126000EEE7EE2EE8E3FE2EFEEECF2EF8E3DF2EC5
:10127000A8EB4A2EABE05A2E612C712CB4E78B2ED2
:10128000B2E09B2EA12CB12C82D3A3019201EDD40C
:101290006053784F8F4F9F4FD5D3D8016D937D9377
:1012A0008D939D938D0173D3A5019401DED4CAD390
:1012B00020E030E048EC52E4CBD5F7016193719324
:1012C000819391937F01C016D106F1F680910014AD
:1012D0008A3108F070C090E08093F9389093FA3822
:1012E0008091F9389091FA388093F7389093F838D4
:1012F00060E08AE069DB61E172E087E00E94CA0099
:1013000063E572E082E00E94CA0064E670E080E07B
:1013100090E052D82091F9383091FA388091F7381E
:101320009091F83828173907F9F08091F9389091A1
:10133000FA3820910014281779F0A0E0B4E1E0E039
:10134000F0E10FB622812370E9F7F8948C938DE9D0
:1013500084BF83E080830FBE8091F9389091FA3882
:101360008093F7389093F8382090F9383090FA3815
:10137000BAE12B16310408F0C8CFF101EF53F64F54
:10138000AAC6E009D80ADE0AE30AE80AED0AF20A68
:10139000F70AFC0A010B060B120B150B180B1B0BA3
:1013A0004E0B8B0BFC0B010C050C080C0C0C0F0CE2
:1013B000130C170C1B0C1092F9381092FA3890CFBE
:1013C00024D84B015C01FFD9C12CD12C70E8E72E49
:1013D0007FE3F72E813041F46DECC62E6CECD62EF7
:1013E0006CE4E62E6FE3F62E20FC70C024EF31E0B3
:1013F000D101B595A79575D6680D791D8A1D9B1DE0
:1014000028EB38E840E050E08DD41AD32B013C01A2
:1014100020E030EC4AE555E41BD582D56A307105F1
:1014200014F069E070E0CB0101968C01000F111FF0
:10143000080F191F072E000C880B990B03D320E00F
:1014400030EC4AE555E45DD39B01AC01C301B20128
:101450009AD420E030EC4AE555E4FAD49B01AC0183
:10146000B80162517B45C80185519B459AD8162F1A
:10147000072F682F70E090E080E0E4D2A70196018A
:1014800040D353D5762E602F70E090E080E0DAD222
:10149000A701960136D349D5062F612F70E090E061
:1014A00080E0D0D2A70196012CD33FD5272D402F25
:1014B000C1010E948400FFEF2F1A3F0A2EE022167E
:1014C000310409F091CF0E942B011FCFD101119758
:1014D000B595A7952CE231E004D6680D791D8A1DDB
:1014E0009B1D28EC32E340E050E01CD46838E3E177
:1014F0007E078105910590F5A3D22B013C012EE8D2
:1015000033EE4AE054E4A4D40BD56930710514F0ED
:1015100068E070E0CB0101968C01000F111F080FED
:10152000191F072E000C880B990B8CD22EE833EE76
:101530004AE054E4E6D29B01AC01C301B20123D4DA
:101540002EE833EE4AE054E483D49B01AC01B801A9
:101550006D5C7A45C801805D9A4588CF68587341B3
:10156000810991096DD225E535E545E053E470D454
:10157000D7D46E3171057CF4CB0166E070E098D56C
:10158000FC01EE0FFF1FE80FF91FEF5DFA456081C8
:10159000718182816CCFCB014E9766E070E088D577
:1015A000FC01EE0FFF1FE80FF91FE15FFA45EFCFD7
:1015B00060E070E08FEF90E075D9A7CE60E07FEF3C
:1015C00080E090E0F9CF6FEF70E080E090E0F4CF42
:1015D00060E074E68BE990E0EFCF60E870E880E0CF
:1015E00090E0EACF66E970E089E690E0E5CF60E060
:1015F00078E287ED90E0E0CF60E273E08CED90E080
:10160000DBCF64E67AE584E690E0D6CF69E975EA57
:10161000CE0101960FDACE01019683DB89819A8192
:1016200002D673CE60EA75EAF3CF67EA75EAF0CFC7
:101630006CEA75EAEDCF81E08093EE38F12CE12C75
:1016400010E000E0802F8E0D0E949502C0D8472E3A
:10165000582E692E77244C01AA24BB24262F442D12
:10166000682DC8010E9484000F5F1F4F0E301105C6
:1016700049F78091EE38882309F447CE0E942B0168
:1016800064E170E080E090E00E94DC018FEFE81AF6
:10169000F80AE114A1E0FA0699F637CE81E08093CA
:1016A000EE3810E000E0EEE0AE2EB12CD12CC12CD3
:1016B000F12CE12CC601B501E7D4862F800F0E94E2
:1016C000950285D89B01AC01432E542E652E7724BC
:1016D000BA0188279927442DC7010E948400BFEFD3
:1016E000EB1AFB0AD394FEE0EF16F10419F7809190
:1016F000EE38882309F409CE0E942B0164E170E0E2
:1017000080E090E00E94DC010F5F1F4F011525E093
:10171000120761F6FACD0E9405020091F33810918C
:10172000F4382091F5383091F6386B017C01C01AFD
:10173000D10AE20AF30A9701860104361105210550
:10174000310508F4E2CD6093F3387093F438809358
:10175000F5389093F63810E000E020E040E060E0DB
:10176000C8010E9484000F5F1F4F0E301105A9F7BA
:10177000B12C10E000E03EE0E32EF12C8091F13836
:101780009091F238800F911FB70192D46C01809133
:10179000EF388B0D0E9495021AD89B01AC01432EA5
:1017A000542E652E7724BA0188279927442DC60127
:1017B0000E9484000F5F1F4F23E1D22EBD0C27EF44
:1017C000B212DCCF0E942B018091F1389091F23857
:1017D0000196B7016DD48093F1389093F2388091DF
:1017E000EF389091F038059660E071E061D4809315
:1017F000EF389093F03889CD40E060E08FEF63D907
:1018000084CD40E06FEF80E0FACF4FEF60E0FBCF98
:1018100040E064E68BE9F3CF40E860E8F4CF46E9C6
:1018200060E089E6ECCF40E068E287EDE8CF40E297
:1018300063E08CEDE4CF44E66AE584E6E0CF109205
:10184000FB3882E390E08093003990930139109245
:10185000033910920A3910920B3910920C391092F8
:101860000D3981E080930939809306391092073948
:1018700082E0809308398AE290E08093FE3890936A
:10188000FF3835D48093043990930539009711F1CE
:101890002AE2FC0111922A95E9F78EE090E080930C
:1018A000FC389093FD388BE0809302398091FB38AF
:1018B000882331F061E08BE087D88BE00E945D03E4
:1018C00084E494E080930E3990930F3982E0809302
:1018D000103908951092FE381092FF381092FC389B
:1018E0001092FD38E0CF809104399091053900972E
:1018F00009F099D460E08091023966C88F929F9276
:10190000AF92BF92CF92DF92EF92FF92CF93DF938D
:10191000EC01688179818A819B816115710581055E
:10192000910521F464E279ED8BE597E02DE133EF49
:1019300041E050E09AD149015A019B01AC01A7EA6C
:10194000B1E4AFD16B017C01ACEEB4EFA501940121
:10195000B4D1C60ED71EE81EF91EF7FE06C081E000
:10196000C81AD108E10880E8F80AC882D982EA8258
:10197000FB82C701B6019F77DF91CF91FF90EF9077
:10198000DF90CF90BF90AF909F908F9008958F92EF
:101990009F92AF92BF92CF92DF92EF92FF926091AF
:1019A0000638709107388091083890910938611590
:1019B00071058105910521F464E279ED8BE597E0ED
:1019C0002DE133EF41E050E050D149015A019B0134
:1019D000AC01A7EAB1E465D16B017C01ACEEB4EFD8
:1019E000A50194016AD1C60ED71EE81EF91EF7FEA6
:1019F00006C081E0C81AD108E10880E8F80AC09260
:101A00000638D0920738E0920838F0920938C701BA
:101A1000B6019F77FF90EF90DF90CF90BF90AF908F
:101A20009F908F9008956093063870930738809345
:101A3000083890930938089540D008F481E008955B
:101A4000E89409C097FB3EF4909580957095619558
:101A50007F4F8F4F9F4F9923A9F0F92F96E9BB270E
:101A60009395F695879577956795B795F111F8CF8A
:101A7000FAF4BB0F11F460FF1BC06F5F7F4F8F4FF5
:101A80009F4F16C0882311F096E911C0772321F0EB
:101A90009EE8872F762F05C0662371F096E8862F83
:101AA00070E060E02AF09A95660F771F881FDAF7DA
:101AB000880F9695879597F90895990F0008550F07
:101AC000AA0BE0E8FEEF16161706E807F907C0F0C4
:101AD00012161306E407F50798F0621B730B840BCC
:101AE000950B39F40A2661F0232B242B252B21F4A6
:101AF00008950A2609F4A140A6958FEF811D811D46
:101B000008950BD078C069D028F06ED018F09523D6
:101B100009F05AC05FC01124A2C07ED0A0F3959FE7
:101B2000D1F3950F50E0551F629FF001729FBB27C4
:101B3000F00DB11D639FAA27F00DB11DAA1F649F70
:101B40006627B00DA11D661F829F2227B00DA11D23
:101B5000621F739FB00DA11D621F839FA00D611DA9
:101B6000221F749F3327A00D611D231F849F600DCA
:101B7000211D822F762F6A2F11249F5750408AF003
:101B8000E1F088234AF0EE0FFF1FBB1F661F771F8F
:101B9000881F91505040A9F79E3F510570F014C026
:101BA0005EC05F3FECF3983EDCF3869577956795D2
:101BB000B795F795E7959F5FC1F7FE2B880F911DAD
:101BC0009695879597F9089597F99F6780E870E053
:101BD00060E008959FEF80EC089500240A941616A3
:101BE000170618060906089500240A94121613060B
:101BF000140605060895092E0394000C11F4882399
:101C000052F0BB0F40F4BF2B11F460FF04C06F5FB4
:101C10007F4F8F4F9F4F089557FD9058440F551F8A
:101C200059F05F3F71F04795880F97FB991F61F05E
:101C30009F3F79F087950895121613061406551FD5
:101C4000F2CF4695F1DF08C0161617061806991F41
:101C5000F1CF86957105610508940895E894BB2736
:101C600066277727CB0197F90895052E97FB16F481
:101C700000940FD057FD05D055D007FC02D046F494
:101C800008C050954095309521953F4F4F4F5F4F7D
:101C9000089590958095709561957F4F8F4F9F4FD8
:101CA000089562D0A59F900DB49F900DA49F800DC4
:101CB000911D11240895B7FFF4CFF3DF821B930B1E
:101CC00008952F923F924F925F926F927F928F92E0
:101CD0009F92AF92BF92CF92DF92EF92FF920F93BB
:101CE0001F93CF93DF93CDB7DEB7CA1BDB0BCDBFFE
:101CF000DEBF09942A88398848885F846E847D8491
:101D00008C849B84AA84B984C884DF80EE80FD80A3
:101D10000C811B81AA81B981CE0FD11DCDBFDEBF41
:101D2000ED010895A1E21A2EAA1BBB1BFD010DC0F7
:101D3000AA1FBB1FEE1FFF1FA217B307E407F5077B
:101D400020F0A21BB30BE40BF50B661F771F881F57
:101D5000991F1A9469F760957095809590959B01ED
:101D6000AC01BD01CF010895A29FB001B39FC00196
:101D7000A39F700D811D1124911DB29F700D811DB7
:101D80001124911D08955058BB27AA270ED033CF98
:101D900024DF30F029DF20F031F49F3F11F41EF4EE
:101DA00019CF0EF4E095E7FB0FCFE92F35DF80F375
:101DB000BA17620773078407950718F071F49EF548
:101DC0004DCF0EF4E0950B2EBA2FA02D0B01B901CB
:101DD00090010C01CA01A0011124FF27591B99F0A1
:101DE000593F50F4503E68F11A16F040A22F232FAD
:101DF000342F4427585FF3CF469537952795A795FD
:101E0000F0405395C9F77EF41F16BA0B620B730BA3
:101E1000840BBAF09150A1F0FF0FBB1F661F771F14
:101E2000881FC2F70EC0BA0F621F731F841F48F4C9
:101E3000879577956795B795F7959E3F08F0B3CF4F
:101E40009395880F08F09927EE0F97958795089539
:101E50000CD0D1CEC9DE40F0C0DE30F021F45F3FBF
:101E600019F0B2CE5111FBCEB5CED6DE98F3992340
:101E7000C9F35523B1F3951B550BBB27AA2762174E
:101E80007307840738F09F5F5F4F220F331F441F93
:101E9000AA1FA9F333D00E2E3AF0E0E830D09150CB
:101EA0005040E695001CCAF729D0FE2F27D0660FB8
:101EB000771F881FBB1F261737074807AB07B0E8F7
:101EC00009F0BB0B802DBF01FF2793585F4F2AF00D
:101ED0009E3F510568F078CEC2CE5F3FECF3983E4E
:101EE000DCF3869577956795B795F7959F5FC9F76A
:101EF000880F911D9695879597F90895E1E0660FF3
:101F0000771F881FBB1F621773078407BA0720F06B
:101F1000621B730B840BBA0BEE1F88F7E0950895D4
:101F200004D06894B1119BCE08957EDE88F09F574F
:101F300090F0B92F9927B751A0F0D1F0660F771F15
:101F4000881F991F1AF0BA95C9F712C0B13081F0F5
:101F500085DEB1E0089582CE672F782F8827B85F9D
:101F600039F0B93FCCF3869577956795B395D9F756
:101F70003EF490958095709561957F4F8F4F9F4F60
:101F800008959F9305D00F9007FCEE5F28C022CEE6
:101F90004BDEE8F3E894E0E0BB279F57F0F02AED32
:101FA0003FE049EC06C0EE0FBB0F661F771F881F8E
:101FB00028F0B23A62077307840728F0B25A620B1E
:101FC000730B840BE3959A9572F7803830F49A95E9
:101FD000BB0F661F771F881FD2F7904813C0EF937F
:101FE000E0FF06C0A2EA2AED3FE049EC5FEBDDDE50
:101FF00002DE0F90039401FC9058ECE7F0E00EC075
:102000009F3F31F0915020F4879577956795B7956C
:10201000880F911D9695879597F908959F938F93B3
:102020007F936F93FF93EF939B01AC016ADDEF9178
:10203000FF9105D02F913F914F915F9162CDDF933A
:10204000CF931F930F93FF92EF92DF927B018C014E
:10205000689405C0DA2EEF0160DDFE01E894A591D9
:102060002591359145915591AEF3EF019EDEFE012C
:102070009701A801DA9479F7DF90EF90FF900F9124
:102080001F91CF91DF910895AA1BBB1B51E107C09F
:10209000AA1FBB1FA617B70710F0A61BB70B881FF8
:1020A000991F5A95A9F780959095BC01CD01089587
:1020B00097FB072E16F4009406D077FD08D0E4DFD6
:1020C00007FC05D03EF4909581959F4F089570953B
:1020D00061957F4F0895EE0FFF1F0590F491E02D5D
:1020E000099442DEB7FF0895821B930B08950F9366
:1020F0001F93CF93DF938230910510F482E090E03C
:10210000E0911339F091143930E020E0B0E0A0E024
:10211000309799F42115310509F44AC0281B390B71
:1021200024303105D8F58A819B816115710589F1CB
:10213000FB0182839383FE0111C0408151810281A2
:10214000138148175907E0F04817590799F4109779
:1021500061F012960C93129713961C933296CF014E
:10216000DF91CF911F910F91089500931339109330
:102170001439F4CF2115310551F04217530738F0C7
:10218000A901DB019A01BD01DF01F801C1CFEF0117
:10219000F9CF8093133990931439CDCFFE01E20F1C
:1021A000F31F819391932250310928833983D7CF2C
:1021B0002091113930911239232B41F420910C38A0
:1021C00030910D38209311393093123920910A380B
:1021D00030910B382115310541F42DB73EB74091B0
:1021E0000E3850910F38241B350BE0911139F091C6
:1021F0001239E217F307A0F42E1B3F0B28173907FB
:1022000078F0AC014E5F5F4F2417350748F04E0F52
:102210005F1F4093113950931239819391939FCF4F
:10222000F0E0E0E09CCFCF93DF930097E9F0FC0172
:10223000329712821382A0911339B0911439ED01B3
:1022400030E020E01097A1F420813181820F931FAC
:1022500020911139309112392817390709F061C0DE
:10226000E0931139F0931239DF91CF910895EA018B
:10227000CE17DF07E8F54A815B819E0141155105C4
:10228000B1F7E901EA83FB8349915991C40FD51F46
:10229000EC17FD0761F4808191810296840F951FF0
:1022A000E90188839983828193818A839B83F0E00B
:1022B000E0E012968D919C9113970097B9F52D91BE
:1022C0003C911197CD010296820F931F20911139F5
:1022D000309112392817390739F6309751F5109295
:1022E000133910921439A0931139B0931239BCCF1D
:1022F000C283D38340815181840F951FC817D907AA
:1023000061F44E5F5F4F88819981480F591F408368
:1023100051838A819B81828393832115310509F042
:10232000B0CFE0931339F09314399ECFFD01DC0157
:10233000C0CF12821382D7CFB0E0A0E0E1EAF1E192
:10234000C2CC8C01009741F4CB01D1DE8C01C801D5
:10235000CDB7DEB7E0E1D0CCFC01E60FF71F9C0162
:1023600022503109E217F30708F499C0D901CD9141
:10237000DC911197C617D70790F0C530D10538F317
:10238000CE0104978617970710F3C61BD70B229729
:10239000C193D1936D937C93CF0145DFD8CF5B017F
:1023A000AC1ABD0A4C018C0E9D1EA0911339B09140
:1023B0001439512C412CF12CE12C109731F58091DE
:1023C0001139909112398815990509F05CC04616AB
:1023D000570608F058C080910A3890910B38009742
:1023E00041F48DB79EB740910E3850910F38841B41
:1023F000950BE817F90708F052C0E0931139F093F4
:102400001239F90160837183A2CF8D919C9111974C
:1024100012966C90129713967C901397A815B90595
:1024200059F56C0142E0C40ED11CCA14DB0420F142
:10243000AC014A195B09DA011296159780F06282A5
:10244000738240835183D9016D937C93E114F1042D
:1024500071F0D7011296ED93FC93139778CF2296E3
:102460008C0F9D1FF90180839183F301EFCFE093DF
:102470001339F09314396BCF4816590608F42C0120
:102480007D01D3019ACFCB0132DE7C01009739F078
:10249000AE01B80107D0C801C6DE870158CF10E0F1
:1024A00000E055CFFB01DC0102C001900D924150CC
:1024B0005040D8F70895FB01DC018D9101908019FF
:1024C0000110D9F3990B0895FB01DC0101900D92E5
:1024D0000020E1F7089510E0CEE4D0E003C0FE0153
:0E24E000FADD2196CF34D107D1F7F894FFCF63
:1024EE00FF000080800000FF000080800000FF558C
:1024FE0055550000FF00808000FF00808000FF0027
:10250E0000808000000000008080000000800080BD
:10251E00000000FF000000000000FF0000000000AF
:10252E0000FF000000FF000080800000FF00008020
:10253E00800000FF5555550000FF00808000FF0011
:10254E00808000101080000000001010104040002D
:10255E000000001000040506070504030201000038
:10256E00010203010203000000000001010101014C
:10257E00010202020200000000102040802010081C
:10258E000402010102040802040801737072696EEC
:10259E00670073756D6D65720066616C6C007769AE
:0525AE006E746572006F
:1025B3002438183810380100000000001539800055
:00000001FF
